:100000001DC100000C948B0B0C94B60B0C94E10BEF
:100010000C940C0C0C94370C0C94620C0C948D0CFE
:100020000C94B80C3CC100003AC1000038C100007B
:1000300036C1000034C1000032C1000030C10000F0
:100040002EC100002CC100002AC1000028C1000000
:1000500026C1000024C1000022C100000C94460EFD
:100060001EC100000C945C080C94920818C100009A
:1000700016C1000014C1000012C1000010C1000030
:100080000EC100000CC100000AC1000008C1000040
:100090000C9407090C943D0902C1000000C1000046
:1000A000FEC00000FCC00000FAC00000F8C0000064
:1000B000F6C00000F4C00000F2C00000F0C0000074
:1000C000EEC00000ECC00000EAC00000E8C0000084
:1000D000E6C00000E4C000000C94B2090C94E809EA
:1000E000DEC00000650B2F0B370B430B500B710B61
:1000F0007E0B160F190F080F0C0F120F500F1D0F4C
:10010000210F270F2B0F2F0F350F390F3D0F500FDA
:10011000430F470F4B0F00000A0B02090C0D0E088E
:1001200007030401000000000000000000000000C0
:1001300000000000000000000000000000000000BF
:10014000000012111000000000000000000000007C
:10015000000000000000000000000000010210206C
:1001600020080810204010204080020102010804ED
:100170000201010204081020408080402010080481
:1001800002018004020180402010080402010804DA
:10019000020101020408102040800102040810201E
:1001A0004080050505050705080808080202020247
:1001B0000A0A080804040404010101010101010103
:1001C0000303030303030303040707070C0C0C0CCE
:1001D0000C0C0C0C020202020606060606060606B7
:1001E0000B0B0B0B0B0B0B0B00002000230026004E
:1001F00029002C002F00320000010000030106013D
:10020000090100002200250028002B002E003100EB
:10021000340002010000050108010B01000021006B
:10022000240027002A002D003000330001010000C7
:10023000040107010A01C4086F091A0A11241FBE2C
:10024000CFEFD1E2DEBFCDBF00E00CBF12E0A0E0F7
:10025000B2E0E8EFF9E200E00BBF02C007900D92B8
:10026000A23AB107D9F724E0A2EAB2E001C01D9298
:10027000A23DB207E1F712E0CCE3D2E000E006C015
:1002800022970109FE010BBF0E943B10C633D10724
:1002900080E00807A9F70E943B0E0C94FA14B0CE38
:1002A000809110020E94BF0F9093D9028093D802D0
:1002B00080910E020E94BF0F9093D5028093D402CA
:1002C00080910C020E94BF0F9093D1028093D002C4
:1002D000E091D802F091D9022091D4023091D50258
:1002E000309709F05BC02130310521F0211531052F
:1002F00069F1DEC081309105C9F74091D602509175
:10030000D702452B99F74091D2025091D302413048
:10031000510509F026C14091CE025091CF02452BE4
:1003200029F74091E6025091E7026091E80270914E
:10033000E9024F5F5F4F6F4F7F4F4093E60250934C
:10034000E7026093E8027093E902D0CF8130910513
:1003500009F0FAC04091D6025091D70241155105DB
:1003600089F44091D2025091D3024130510509F0F5
:10037000EBC04091CE025091CF024130510509F0BF
:10038000E3C0B1C04130510509F0DEC04091D20256
:100390005091D302452B09F0D7C0BBC0E130F10525
:1003A00009F0D2C021153105A1F581309105B1F5D3
:1003B0004091D6025091D7024115510539F4409130
:1003C000D2025091D302452B21F539C0413051055D
:1003D00001F54091D2025091D302452BD1F44091C6
:1003E000CE025091CF02452BA1F44091E6025091EC
:1003F000E7026091E8027091E902415051096109F8
:1004000071094093E6025093E7026093E80270930B
:10041000E9022130310509F097C025C00097C9F7DE
:100420004091D6025091D7024130510591F7409149
:10043000D2025091D3024115510509F09EC040915E
:10044000CE025091CF024130510519F74091E6029A
:100450005091E7026091E8027091E9024F5F5F4FAF
:100460006F4F7F4FCECF009709F06EC04091D602FC
:100470005091D7024130510541F44091D202509140
:10048000D302452B09F060C028C0452B09F05CC0A1
:100490004091D2025091D3024130510509F054C02D
:1004A0004091CE025091CF02452B09F04DC038C08B
:1004B0002130310509F048C0009709F045C040914E
:1004C000D6025091D70241305105D1F44091D20269
:1004D0005091D30241305105B9F54091CE0250916F
:1004E000CF02452B89F54091E6025091E7026091D9
:1004F000E8027091E9024F5F5F4F6F4F7F4F1CC062
:10050000452B11F54091D2025091D3024130510553
:10051000D9F44091CE025091CF0241305105A1F45F
:100520004091E6025091E7026091E8027091E90281
:1005300041505109610971094093E6025093E70265
:100540006093E8027093E902F093D702E093D60239
:100550003093D3022093D2029093CF028093CE02A5
:100560000895452B09F0C2CE4091CE025091CF02A2
:100570004130510509F0BACED3CF4130510509F0D1
:1005800048CF4091CE025091CF02452B09F041CF88
:10059000C7CFDC01ED91FC910190F081E02D199421
:1005A000CF92DF92EF92FF920F931F93CF93DF933F
:1005B000CDB7DEB762970FB6F894DEBF0FBECDBFE2
:1005C0008091E6029091E702A091E802B091E902E1
:1005D0002091E2023091E302821B930B8930910556
:1005E00014F089E090E09093A5028093A40280919A
:1005F000A4029091A502883F9F4F34F487EF9FEFAC
:100600009093A5028093A4020091A4021091A502E8
:100610002091DA023091DB024091DC025091DD0240
:1006200068EE73E080E090E00E940910D8010E941B
:100630003510660F771F881F991F0E9452112BEDEE
:100640003FE049E450E40E9406126B017C01609196
:100650000A0270910B02882777FD8095982F0E94DF
:1006600052119B01AC01C701B6010E94B710609303
:10067000C6027093C7028093C8029093C90280910A
:10068000E6029091E702A091E802B091E90280931E
:10069000E2029093E302A093E402B093E5024AE001
:1006A000B801CE0101960E94920D69E272E0CE017E
:1006B0000D960E944A0DBE01635F7F4FCE010796E3
:1006C0000E94740D65E372E0CE0107960E94220E2F
:1006D000BE016F5F7F4F0E94110EBC018EEE92E053
:1006E0003BD7CE0107960E94E30CCE010D960E94E7
:1006F000E30CCE0101960E94E30C4091DA02509186
:10070000DB026091DC027091DD022AE0CE010196ED
:100710000E94BC0D67E372E0CE010D960E944A0D67
:10072000BE01635F7F4FCE0107960E94740D65E3A3
:1007300072E0CE0107960E94220EBE016F5F7F4FCE
:100740000E94110EBC018EEE92E006D7CE010796F4
:100750000E94E30CCE010D960E94E30CCE0101969F
:100760000E94E30C62960FB6F894DEBF0FBECDBFB9
:10077000DF91CF911F910F91FF90EF90DF90CF907D
:1007800008958F929F92AF92BF920F931F93CF9332
:10079000DF9390580E944E104B015C016093B602AB
:1007A0007093B7028093B8029093B9028AE999E9ED
:1007B000A9E1BEE38093BE029093BF02A093C00262
:1007C000B093C1028AE097EDA3EABBE38093BA023B
:1007D0009093BB02A093BC02B093BD026091DA0279
:1007E0007091DB028091DC029091DD020E94521137
:1007F0009B01AC01C501B4010E9406122091AE021A
:100800003091AF024091B0025091B1020E944F105E
:100810008B01D82FC92F20E030E04AEF54EC0E9422
:10082000B31087FD10C020E030E04AEF54E4B80177
:100830008D2F9C2F0E94021218164CF400E010E03D
:10084000DAEFC4E404C000E010E0DAEFC4ECA80181
:100850006D2F7C2F4093AE025093AF026093B00295
:100860007093B1022AE939E949E15EE3C501B401B7
:100870000E9406124B015C012AE037ED43EA5BE37C
:10088000B8018D2F9C2F0E9406129B01AC01C5015F
:10089000B4010E944F106093B2027093B302809330
:1008A000B4029093B5022EEA35EF45EC5CE30E946A
:1008B000B7108B01D82FC92FAB01682F792F409328
:1008C000AA025093AB026093AC027093AD0220E099
:1008D00030E042E853ECB8010E94B31087FD10C02D
:1008E00020E030E042E853E4B8018D2F9C2F0E94B5
:1008F000021218164CF400E010E0D2E8C3E404C081
:1009000000E010E0D2E8C3ECA8016D2F7C2F4093EB
:10091000A6025093A7026093A8027093A902B8019F
:100920008D2F9C2FDF91CF911F910F91BF90AF9092
:100930009F908F9008958091EC029091ED02843009
:1009400021E092071CF084E091E005C08D3F9E4FAE
:1009500034F48CEF9EEF9093ED028093EC02809143
:10096000EC029091ED029C0197FF04C022273327EF
:10097000281B390B40910802509109024217530776
:1009800064F0892B51F080910602909107029093B8
:10099000EB028093EA0261E005C01092EB02109234
:1009A000EA0260E083E30E948A0F3091EC0220911A
:1009B000ED0220931302309314028091EA02909189
:1009C000EB029093150280931602832735E5832767
:1009D0008227892780931702E0918B03F0918C0383
:1009E0000280F381E02D47E050E062E172E08BE8A5
:1009F00093E01994EF92FF920F931F93CF93DF939D
:100A000026E040E052EC61E070E088E294E0F4D24D
:100A100026E040E052EC61E070E08BE893E0ECD23D
:100A200026E040E052EC61E070E08EEE92E0E4D22D
:100A300061E083E30E94510F30E1E32E32E0F32EB8
:100A400060E0F70180810E94510F0EE012E060E04B
:100A5000F80180810E94510FCCE0D2E060E08881F3
:100A60000E94510F61E0F70180810E948A0F61E0CE
:100A7000F80180810E948A0F61E088810E948A0FBC
:100A8000F70180810E94BF0F9093D7028093D60216
:100A9000F80180810E94BF0F9093D3028093D2020D
:100AA00088810E94BF0F9093CF028093CE0241E0D5
:100AB00050E060E571E080E0BED541E050E060E5E7
:100AC00071E081E0B8D541E050E060E571E082E09E
:100AD000DF91CF911F910F91FF90EF90ACC5CF9315
:100AE000DF9300D0CDB7DEB788E294E078D1892BD0
:100AF00009F4C6C088E294E08BD18D3699F581E087
:100B000090E09093A3028093A2021092E6021092CA
:100B1000E7021092E8021092E9021092E2021092AB
:100B2000E3021092E4021092E5021092CA021092BF
:100B3000CB021092CC021092CD021092AE02109213
:100B4000AF021092B0021092B1021092ED02109218
:100B5000EC028FEF9FEF9093EB028093EA026BE33E
:100B600072E035C08B3609F05FC081E090E0909371
:100B7000A3028093A2021092E6021092E702109262
:100B8000E8021092E9021092E2021092E30210923F
:100B9000E4021092E5021092CA021092CB02109267
:100BA000CC021092CD021092AE021092AF021092BF
:100BB000B0021092B1021092ED021092EC028AEA99
:100BC0009AEA9093EB028093EA0267E472E08EEE79
:100BD00092E0D2D43091EC022091ED0220931302E6
:100BE000309314028091EA029091EB0290931502E7
:100BF00080931602832735E58327822789278093F0
:100C00001702E0918B03F0918C030280F381E02DB9
:100C100047E050E062E172E08BE893E019951092B2
:100C2000EB021092EA022CC08B3751F543E050E002
:100C3000BE016F5F7F4F88E294E0DAD469818A81D8
:100C40009B819D37E9F470E0762F6627680F711D50
:100C50007093C3026093C202882777FD8095982F16
:100C60000E94521128EE3FE049E459E30E94061227
:100C70006093CA027093CB028093CC029093CD0212
:100C80000F900F900F90DF91CF910895CF93DF9346
:100C90008091C6029091C702A091C802B091C9028A
:100CA000BC01CD01905828EE3FE049E459E30E9491
:100CB000B7100E941F11EB016093C402D093C502CC
:100CC0006BE770E088E294E064DC6D2F88E294E0EA
:100CD0002FD16C2F88E294E02BD16DE770E088E291
:100CE00094E0DF91CF9155CC0F931F93F8DE0E94D3
:100CF000900E0091DE021091DF022091E00230910F
:100D0000E102601B710B820B930B64367105810548
:100D1000910508F461C00E94900E0091DE021091CE
:100D2000DF022091E0023091E102601B710B820B27
:100D3000930B6093DA027093DB028093DC02909352
:100D4000DD02EED76093DE027093DF028093E00253
:100D50009093E10225DC9ADF2091C6023091C70210
:100D60004091C8025091C9026091CA027091CB02B1
:100D70008091CC029091CD0204DD0E941F117093EE
:100D8000ED026093EC0220E030E0A9016091CA021C
:100D90007091CB028091CC029091CD020E94B31051
:100DA00081110CC01092ED021092EC021092AE0272
:100DB0001092AF021092B0021092B1028091EC0238
:100DC0009091ED02892B29F46DE672E08EEE92E0AF
:100DD000D3D31F910F91AFCD1F910F910895FC01B7
:100DE000818D228D90E0805C9F4F821B91098F73D3
:100DF00099270895FC01918D828D981731F0828D8D
:100E0000E80FF11D858D90E008958FEF9FEF089515
:100E1000FC01918D828D981761F0828DDF01A80F02
:100E2000B11D5D968C91928D9F5F9F73928F90E024
:100E300008958FEF9FEF08958BEB98E0892B39F0A1
:100E400080E090E0892B19F096D1811123C086E6CD
:100E500099E0892B39F080E090E0892B19F036D2A7
:100E600081111BC080E090E0892B41F080E090E090
:100E7000892B21F00E940000811112C081E19AE0CB
:100E8000892B99F080E090E0892B79F0CAD281110A
:100E90000AC008950E940000DACF0E940000E2CF4D
:100EA0000E940000EBCF0C9400000895FC01848D9B
:100EB000DF01A80FB11DA35ABF4F2C91848D90E084
:100EC00001968F739927848FA689B7892C93A0895F
:100ED000B1898C9180648C93938D848D981306C016
:100EE0000288F389E02D80818F7D80830895CF93E0
:100EF000DF93EC01888D8823C1F0EA89FB8980812A
:100F000085FD05C0A889B9898C9186FD0EC00FB6F4
:100F100007FCF5CF808185FFF2CFA889B9898C9134
:100F200085FFEDCFCE01C2DFE8CFDF91CF910895ED
:100F3000CF92DF92FF920F931F93CF93DF931F9275
:100F4000CDB7DEB76C0181E0D60158968C935897E7
:100F50005B969C915B975C968C915C97981307C00D
:100F60005096ED91FC915197808185FD2DC0F60141
:100F7000038D10E00F5F1F4F0F731127F02EF60146
:100F8000848DF81210C00FB607FCF9CFD601509629
:100F9000ED91FC915197808185FFF1CFC601698366
:100FA00085DF6981ECCF838DE80FF11DE35AFF4F98
:100FB0006083D6015B960C935B975296ED91FC9102
:100FC0005397808180620CC0D6015696ED91FC91BA
:100FD000579760835096ED91FC9151978081806482
:100FE000808381E090E00F90DF91CF911F910F916E
:100FF000FF90DF90CF900895BF92CF92DF92EF9253
:10100000FF92CF93DF93EC016A017B01B22EE88956
:10101000F98982E08083411581EE580761057105E9
:1010200099F060E079E08DE390E0A7019601CFD7D9
:101030002150310941095109569547953795279512
:10104000211580E1380790F0E889F989108260E87D
:1010500074E88EE190E0A7019601B9D721503109DB
:10106000410951095695479537952795EC85FD859A
:101070003083EE85FF852083188EEC89FD89B08250
:10108000EA89FB89808180618083EA89FB8980818C
:1010900088608083EA89FB89808180688083EA890F
:1010A000FB8980818F7D8083DF91CF91FF90EF90CE
:1010B000DF90CF90BF9008951F920F920FB60F92BE
:1010C00011240BB60F922F938F939F93EF93FF935F
:1010D000E091FE02F091FF028081E0910403F09123
:1010E000050382FD12C09081809107038F5F8F738B
:1010F00020910803821751F0E0910703F0E0E251DC
:10110000FD4F958F8093070301C08081FF91EF9180
:101110009F918F912F910F900BBE0F900FBE0F904C
:101120001F9018951F920F920FB60F9211240BB6B5
:101130000F922F933F934F935F936F937F938F9370
:101140009F93AF93BF93EF93FF938EEE92E0AEDE4B
:10115000FF91EF91BF91AF919F918F917F916F918F
:101160005F914F913F912F910F900BBE0F900FBE4B
:101170000F901F9018958EEE92E031DE21E0892BC2
:1011800009F420E0822F08951092F1021092F002EB
:1011900088EE93E0A0E0B0E08093F2029093F30237
:1011A000A093F402B093F50284E892E09093EF02EA
:1011B0008093EE0285EC90E09093FB028093FA021C
:1011C00084EC90E09093FD028093FC0280EC90E030
:1011D0009093FF028093FE0281EC90E090930103D4
:1011E0008093000382EC90E09093030380930203CA
:1011F00086EC90E09093050380930403109207031C
:10120000109208031092090310920A0308951F9286
:101210000F920FB60F9211240BB60F922F938F934C
:101220009F93EF93FF93E0919B03F0919C03808148
:10123000E091A103F091A20382FD12C09081809100
:10124000A4038F5F8F732091A503821751F0E09163
:10125000A403F0E0E557FC4F958F8093A40301C0F1
:101260008081FF91EF919F918F912F910F900BBEF5
:101270000F900FBE0F901F9018951F920F920FB6F0
:101280000F9211240BB60F922F933F934F935F93BE
:101290006F937F938F939F93AF93BF93EF93FF933E
:1012A0008BE893E003DEFF91EF91BF91AF919F91A7
:1012B0008F917F916F915F914F913F912F910F90FF
:1012C0000BBE0F900FBE0F901F9018958BE893E008
:1012D00086DD21E0892B09F420E0822F0895109209
:1012E0008E0310928D0388EE93E0A0E0B0E080932F
:1012F0008F0390939003A0939103B093920384E89B
:1013000092E090938C0380938B038DEC90E090930C
:101310009803809397038CEC90E090939A038093CA
:10132000990388EC90E090939C0380939B0389EC55
:1013300090E090939E0380939D038AEC90E09093BD
:10134000A00380939F038EEC90E09093A203809380
:10135000A1031092A4031092A5031092A603109269
:10136000A70308951F920F920FB60F9211240BB688
:101370000F922F938F939F93EF93FF93E0913804F5
:10138000F09139048081E0913E04F0913F0482FDA8
:1013900012C09081809141048F5F8F73209142042D
:1013A000821751F0E0914104F0E0E85DFB4F958F2A
:1013B0008093410401C08081FF91EF919F918F91B3
:1013C0002F910F900BBE0F900FBE0F901F9018958E
:1013D0001F920F920FB60F9211240BB60F922F93FC
:1013E0003F934F935F936F937F938F939F93AF93AD
:1013F000BF93EF93FF9388E294E058DDFF91EF9164
:10140000BF91AF919F918F917F916F915F914F911C
:101410003F912F910F900BBE0F900FBE0F901F901A
:10142000189588E294E0DBDC21E0892B09F420E0C8
:10143000822F089510922B0410922A0488EE93E0D4
:10144000A0E0B0E080932C0490932D04A0932E0490
:10145000B0932F0484E892E09093290480932804A9
:1014600085E391E0909335048093340484E391E024
:10147000909337048093360480E391E0909339048D
:101480008093380481E391E090933B0480933A0485
:1014900082E391E090933D0480933C0486E391E0E5
:1014A00090933F0480933E041092410410924204B2
:1014B00010924304109244040895CF92DF92EF9269
:1014C000FF920F931F93CF93DF937C016A01EB018F
:1014D00000E010E00C151D0571F06991D701ED9148
:1014E000FC910190F081E02DC7011995892B19F02D
:1014F0000F5F1F4FEFCFC801DF91CF911F910F9169
:10150000FF90EF90DF90CF9008956115710581F005
:10151000DB010D900020E9F7AD0141505109461B58
:10152000570BDC01ED91FC910280F381E02D1994C1
:1015300080E090E00895DC01ED91FC91DB011496D0
:101540004D915C9115976D917C910280F381E02D16
:10155000199460E972E0D9CF0F931F93CF93DF9373
:10156000EC01E9DF8C01CE01F4DF800F911FDF91E8
:10157000CF911F910F9108950F931F93CF93DF93F6
:10158000EC01C3DF8C01CE01E4DF800F911FDF91FE
:10159000CF911F910F9108950F931F93CF93DF93D6
:1015A000EC01BED3688779878A879B87E881F981B8
:1015B0000680F781E02DCE01199597FF14C0B0D3B6
:1015C000088519852A853B85601B710B820B930B5F
:1015D0000C811D812E813F8160177107820793075F
:1015E00028F38FEF9FEFDF91CF911F910F91089517
:1015F000CF92DF92EF92FF920F931F93CF93DF93DF
:101600007C016A01EB0100E010E00C151D0541F0C2
:10161000C701C2DF97FD04C089930F5F1F4FF5CF4D
:10162000C801DF91CF911F910F91FF90EF90DF9054
:10163000CF9008950895883008F06CC0E82FF0E04E
:10164000EE0FFF1FE75EFD4F7183608390E0FC01AA
:101650003197E730F10588F5EE58FF4FF6C48091D9
:1016600069008C7F842B80936900E89A08958091AB
:101670006900440F551F440F551F837F842B8093AF
:101680006900E99A08958091690074E0440F551F3C
:101690007A95E1F78F7C842B80936900EA9A08950C
:1016A0008091690066E0440F551F6A95E1F78F73DA
:1016B000842B80936900EB9A089580916A008C7F57
:1016C000842B80936A00EC9A089580916A00440FFD
:1016D000551F440F551F837F842B80936A00ED9A1A
:1016E000089580916A0024E0440F551F2A95E1F780
:1016F0008F7C842B80936A00EE9A089580916A0013
:1017000096E0440F551F9A95E1F78F73842B8093D1
:101710006A00EF9A08951F920F920FB60F9211244C
:101720000BB60F922F933F934F935F936F937F93DB
:101730008F939F93AF93BF93EF93FF93E0911D021D
:10174000F0911E021995FF91EF91BF91AF919F917A
:101750008F917F916F915F914F913F912F910F905A
:101760000BBE0F900FBE0F901F9018951F920F92F7
:101770000FB60F9211240BB60F922F933F934F93F6
:101780005F936F937F938F939F93AF93BF93EF93E9
:10179000FF93E0911F02F09120021995FF91EF91C4
:1017A000BF91AF919F918F917F916F915F914F9179
:1017B0003F912F910F900BBE0F900FBE0F901F9077
:1017C00018951F920F920FB60F9211240BB60F921D
:1017D0002F933F934F935F936F937F938F939F9339
:1017E000AF93BF93EF93FF93E0912102F091220218
:1017F0001995FF91EF91BF91AF919F918F917F913B
:101800006F915F914F913F912F910F900BBE0F9071
:101810000FBE0F901F9018951F920F920FB60F9248
:1018200011240BB60F922F933F934F935F936F93B7
:101830007F938F939F93AF93BF93EF93FF93E09129
:101840002302F09124021995FF91EF91BF91AF917E
:101850009F918F917F916F915F914F913F912F91C8
:101860000F900BBE0F900FBE0F901F9018951F92F8
:101870000F920FB60F9211240BB60F922F933F9336
:101880004F935F936F937F938F939F93AF93BF9388
:10189000EF93FF93E0911902F0911A021995FF91CD
:1018A000EF91BF91AF919F918F917F916F915F91D8
:1018B0004F913F912F910F900BBE0F900FBE0F9045
:1018C0001F9018951F920F920FB60F9211240BB60E
:1018D0000F922F933F934F935F936F937F938F93C9
:1018E0009F93AF93BF93EF93FF93E0911B02F0910F
:1018F0001C021995FF91EF91BF91AF919F918F912C
:101900007F916F915F914F913F912F910F900BBEFF
:101910000F900FBE0F901F9018951F920F920FB649
:101920000F9211240BB60F922F933F934F935F9317
:101930006F937F938F939F93AF93BF93EF93FF9397
:10194000E0912502F09126021995FF91EF91BF9148
:10195000AF919F918F917F916F915F914F913F9147
:101960002F910F900BBE0F900FBE0F901F901895E8
:101970001F920F920FB60F9211240BB60F922F9356
:101980003F934F935F936F937F938F939F93AF9307
:10199000BF93EF93FF93E0912702F09128021995EE
:1019A000FF91EF91BF91AF919F918F917F916F9137
:1019B0005F914F913F912F910F900BBE0F900FBEF3
:1019C0000F901F901895FC01808191811AC6CF93CA
:1019D000DF93EC0188819981009709F012D6198272
:1019E00018821D821C821B821A82DF91CF9108957A
:1019F0000F931F93CF93DF93EC018B016F5F7F4FAA
:101A0000888199818DD6009731F0998388831B83D3
:101A10000A8381E001C080E0DF91CF911F910F9197
:101A20000895CF93DF93EC0188819981892B29F068
:101A30008A819B818617970758F4CE01D9DF8823C6
:101A400041F08C819D81892B19F4E881F981108204
:101A500081E0DF91CF910895EF92FF920F931F9352
:101A6000CF93DF93EC017B018A01BA01DADF8111A8
:101A700003C0CE01ACDF06C01D830C83B701888193
:101A800099813BD7CE01DF91CF911F910F91FF90AC
:101A9000EF900895FC011182108213821282158248
:101AA00014826115710551F0FB0101900020E9F7E6
:101AB000AF0141505109461B570BCECF0895CF932C
:101AC000DF93EC01FB018617970751F0608171816C
:101AD0006115710521F044815581BEDF01C077DFBA
:101AE000CE01DF91CF910895FC0111821082138203
:101AF000128215821482E3CFCF93DF93EC0161153C
:101B0000710559F0FB0101900020E9F7AF01415048
:101B10005109461B570BA0DF01C059DFCE01DF91F1
:101B2000CF9108950F931F93CF93DF93CDB7DEB777
:101B300062970FB6F894DEBF0FBECDBF8C01CB010C
:101B4000F80111821082138212821582148250E0F1
:101B5000BE016F5F7F4FD8D6BE016F5F7F4FC80158
:101B6000CBDF62960FB6F894DEBF0FBECDBFDF911C
:101B7000CF911F910F9108950F931F93CF93DF93F0
:101B8000CDB7DEB7A2970FB6F894DEBF0FBECDBFBC
:101B90008C01CB01BA01F8011182108213821282EA
:101BA0001582148230E0AE014F5F5F4FC1D6BE0197
:101BB0006F5F7F4FC801A0DFA2960FB6F894DEBF1B
:101BC0000FBECDBFDF91CF911F910F910895EF927E
:101BD000FF920F931F93CF93DF93EC017B010C8156
:101BE0001D816115710511F480E014C04115510586
:101BF00081F0040F151FB80114DF8823A9F3288191
:101C000039818C819D81B701820F931F76D61D8308
:101C10000C8381E0DF91CF911F910F91FF90EF90A6
:101C20000895CF93DF93EC01FB01448155816081DE
:101C30007181CDDF811102C0CE01C9DECE01DF91FD
:101C4000CF910895CF93DF93EC016115710561F099
:101C5000FB0101900020E9F7AF0141505109461BFB
:101C6000570BB5DF811102C0CE01B1DECE01DF918D
:101C7000CF910895089560D0FDDF0E94FA04CCE171
:101C8000D7E032D82097E9F3D7D8FBCF1F920F9235
:101C90000FB60F9211242F933F938F939F93AF937F
:101CA000BF938091C6049091C704A091C804B091DD
:101CB000C9043091C50423E0230F2D3720F4019689
:101CC000A11DB11D05C026E8230F0296A11DB11D5F
:101CD0002093C5048093C6049093C704A093C804BE
:101CE000B093C9048091CA049091CB04A091CC0414
:101CF000B091CD040196A11DB11D8093CA049093AB
:101D0000CB04A093CC04B093CD04BF91AF919F912D
:101D10008F913F912F910F900FBE0F901F901895AC
:101D20002FB7F8946091C6047091C7048091C804DD
:101D30009091C9042FBF0895789484B5826084BDC2
:101D400084B5816084BD85B5826085BD85B58160BF
:101D500085BDEEE6F0E0808181608083E1E8F0E01F
:101D60001082808182608083808181608083E0E84E
:101D7000F0E0808181608083E1EBF0E0808184602D
:101D80008083E0EBF0E0808181608083E1E9F0E036
:101D9000808182608083808181608083E0E9F0E0DF
:101DA000808181608083E1EAF0E0808182608083CD
:101DB000808181608083E0EAF0E0808181608083BF
:101DC000E1E2F1E0808182608083808181608083B4
:101DD000E0E2F1E0808181608083EAE7F0E08081E9
:101DE0008460808380818260808380818160808341
:101DF0008081806880831092C100089590E0FC018A
:101E00003197E231F10508F04BC0E758FF4F1DC193
:101E1000809180008F7703C0809180008F7D8093B8
:101E20008000089580918000877FF9CF84B58F77F7
:101E300002C084B58F7D84BD08958091B0008F77F6
:101E400003C08091B0008F7D8093B0000895809191
:101E500090008F7707C0809190008F7D03C08091A4
:101E60009000877F8093900008958091A0008F77E5
:101E700007C08091A0008F7D03C08091A000877F64
:101E80008093A0000895809120018F7707C08091F2
:101E900020018F7D03C080912001877F80932001E6
:101EA0000895CF93DF9390E0FC01E45AFE4F249114
:101EB000FC01EE55FE4F8491882349F190E0880F94
:101EC000991FFC01E45EFD4FA591B4918E5F9D4F7B
:101ED000FC01C591D4919FB7611108C0F8948C9111
:101EE000209582238C93888182230AC0623051F42A
:101EF000F8948C91322F309583238C938881822B98
:101F0000888304C0F8948C91822B8C939FBFDF91BF
:101F1000CF9108950F931F93CF93DF931F92CDB767
:101F2000DEB7282F30E0F901EA5EFE4F8491F90117
:101F3000E45AFE4F1491F901EE55FE4F049100232F
:101F4000C1F0882319F0698359DF6981E02FF0E03F
:101F5000EE0FFF1FEE5FFD4FA591B4919FB7F89470
:101F60008C91611103C01095812301C0812B8C934A
:101F70009FBF0F90DF91CF911F910F910895CF9345
:101F8000DF93282F30E0F901EA5EFE4F8491F901DA
:101F9000E45AFE4FD491F901EE55FE4FC491CC2383
:101FA00089F081112BDFEC2FF0E0EE0FFF1FE851DD
:101FB000FE4FA591B4912C912D2381E090E021F466
:101FC00080E002C080E090E0DF91CF910895A1E22F
:101FD0001A2EAA1BBB1BFD010DC0AA1FBB1FEE1FA3
:101FE000FF1FA217B307E407F50720F0A21BB30BEE
:101FF000E40BF50B661F771F881F991F1A9469F76A
:1020000060957095809590959B01AC01BD01CF01C5
:102010000895052E97FB16F400940FD057FD05D0B8
:10202000D6DF07FC02D046F408C0509540953095A5
:1020300021953F4F4F4F5F4F089590958095709534
:1020400061957F4F8F4F9F4F0895EE0FFF1F0590B3
:10205000F491E02D199413D0A59F900DB49F900D8D
:10206000A49F800D911D11240895B7FFF4CFF3DFD5
:10207000821B930B08950790F691E02D1994A29F6F
:10208000B001B39FC001A39F700D811D1124911D4C
:10209000B29F700D811D1124911D08955058BB27CA
:1020A000AA270ED075C166D130F06BD120F031F483
:1020B0009F3F11F41EF45BC10EF4E095E7FB51C1A4
:1020C000E92F77D180F3BA17620773078407950762
:1020D00018F071F49EF58FC10EF4E0950B2EBA2F17
:1020E000A02D0B01B90190010C01CA01A00111241E
:1020F000FF27591B99F0593F50F4503E68F11A16CA
:10210000F040A22F232F342F4427585FF3CF46955A
:1021100037952795A795F0405395C9F77EF41F167C
:10212000BA0B620B730B840BBAF09150A1F0FF0F46
:10213000BB1F661F771F881FC2F70EC0BA0F621F32
:10214000731F841F48F4879577956795B795F79522
:102150009E3F08F0B3CF9395880F08F09927EE0FB4
:10216000979587950895D9D008F481E008950CD00B
:102170000FC107D140F0FED030F021F45F3F19F0DD
:10218000F0C0511139C1F3C014D198F39923C9F3A8
:102190005523B1F3951B550BBB27AA27621773076D
:1021A000840738F09F5F5F4F220F331F441FAA1F21
:1021B000A9F333D00E2E3AF0E0E830D091505040E1
:1021C000E695001CCAF729D0FE2F27D0660F771F8F
:1021D000881FBB1F261737074807AB07B0E809F071
:1021E000BB0B802DBF01FF2793585F4F2AF09E3F06
:1021F000510568F0B6C000C15F3FECF3983EDCF3D8
:10220000869577956795B795F7959F5FC9F7880F7E
:10221000911D9695879597F90895E1E0660F771FD0
:10222000881FBB1F621773078407BA0720F0621B61
:10223000730B840BBA0BEE1F88F7E095089504D05A
:102240006894B111D9C00895BCD088F09F5790F020
:10225000B92F9927B751A0F0D1F0660F771F881FCB
:10226000991F1AF0BA95C9F712C0B13081F0C3D0E6
:10227000B1E00895C0C0672F782F8827B85F39F084
:10228000B93FCCF3869577956795B395D9F73EF42A
:1022900090958095709561957F4F8F4F9F4F0895D2
:1022A000E89409C097FB3EF49095809570956195F0
:1022B0007F4F8F4F9F4F9923A9F0F92F96E9BB27A6
:1022C0009395F695879577956795B795F111F8CF22
:1022D000FAF4BB0F11F460FF1BC06F5F7F4F8F4F8D
:1022E0009F4F16C0882311F096E911C0772321F083
:1022F0009EE8872F762F05C0662371F096E8862F1B
:1023000070E060E02AF09A95660F771F881FDAF771
:10231000880F9695879597F90895990F0008550F9E
:10232000AA0BE0E8FEEF16161706E807F907C0F05B
:1023300012161306E407F50798F0621B730B840B63
:10234000950B39F40A2661F0232B242B252B21F43D
:1023500008950A2609F4A140A6958FEF811D811DDD
:10236000089597F99F6780E870E060E008959FEF17
:1023700080EC089500240A9416161706180609061C
:10238000089500240A9412161306140605060895EB
:10239000092E0394000C11F4882352F0BB0F40F473
:1023A000BF2B11F460FF04C06F5F7F4F8F4F9F4FB3
:1023B000089557FD9058440F551F59F05F3F71F035
:1023C0004795880F97FB991F61F09F3F79F087959C
:1023D0000895121613061406551FF2CF4695F1DF25
:1023E00008C0161617061806991FF1CF86957105B5
:1023F000610508940895E894BB2766277727CB01E9
:1024000097F908958ADF08F48FEF08950BD0C0CFB5
:10241000B1DF28F0B6DF18F0952309F0A2CFA7CFDF
:102420001124EACFC6DFA0F3959FD1F3950F50E0BA
:10243000551F629FF001729FBB27F00DB11D639F76
:10244000AA27F00DB11DAA1F649F6627B00DA11D1C
:10245000661F829F2227B00DA11D621F739FB00DC2
:10246000A11D621F839FA00D611D221F749F332732
:10247000A00D611D231F849F600D211D822F762FCB
:102480006A2F11249F5750408AF0E1F088234AF0C8
:10249000EE0FFF1FBB1F661F771F881F9150504014
:1024A000A9F79E3F510570F05CCFA6CF5F3FECF3DC
:1024B000983EDCF3869577956795B795F795E79500
:1024C0009F5FC1F7FE2B880F911D9695879597F911
:1024D0000895CF93DF938230910510F482E090E06D
:1024E000E091D004F091D10420E030E0A0E0B0E031
:1024F000309739F14081518148175907B8F0481792
:10250000590771F482819381109729F013969C9357
:102510008E9312972CC09093D1048093D00427C03F
:102520002115310531F04217530718F0A901DB01DD
:1025300001C0EF019A01BD01DF010280F381E02DAE
:10254000D7CF21153105F9F0281B390B243031057F
:1025500080F48A819B816115710521F0FB019383D1
:10256000828304C09093D1048093D004FE013296FC
:1025700044C0FE01E20FF31F819391932250310971
:10258000398328833AC02091CE043091CF04232B85
:1025900041F420910202309103023093CF04209342
:1025A000CE0420910002309101022115310541F441
:1025B0002DB73EB74091040250910502241B350B04
:1025C000E091CE04F091CF04E217F307A0F42E1BA4
:1025D0003F0B2817390778F0AC014E5F5F4F241787
:1025E000350748F04E0F5F1F5093CF044093CE0441
:1025F0008193919302C0E0E0F0E0CF01DF91CF91B1
:102600000895CF93DF93009709F487C0FC013297B8
:1026100013821282C091D004D091D104209781F40A
:1026200020813181280F391F8091CE049091CF04F1
:102630008217930779F5F093CF04E093CE046DC031
:10264000DE0120E030E0AE17BF0750F412964D9146
:102650005C9113979D014115510509F1DA01F3CF02
:10266000B383A28340815181840F951F8A179B07F2
:1026700071F48D919C911197840F951F029691830F
:10268000808312968D919C91139793838283211559
:10269000310529F4F093D104E093D0043EC0D90170
:1026A0001396FC93EE9312974D915D91A40FB51F75
:1026B000EA17FB0779F480819181840F951F0296B8
:1026C000D90111969C938E938281938113969C934A
:1026D0008E931297E0E0F0E08A819B81009719F0D9
:1026E000FE01EC01F9CFCE01029628813981820FDB
:1026F000931F2091CE043091CF042817390769F435
:10270000309729F41092D1041092D00402C01382A1
:102710001282D093CF04C093CE04DF91CF9108955D
:102720006F927F928F929F92AF92BF92CF92DF92E1
:10273000EF92FF920F931F93CF93DF93EC01CB01A6
:10274000209779F4DF91CF911F910F91FF90EF9037
:10275000DF90CF90BF90AF909F908F907F906F90C1
:10276000B8CEFE01E60FF71F9E0122503109E21795
:10277000F30708F4A8C0D9010D911C911197061711
:102780001707B0F00530110508F49BC0A8014450AC
:1027900051094617570708F494C002501109061B47
:1027A000170B019311936D937C93CF012ADF89C09E
:1027B0005B01A01AB10A4E01800E911EA091D004B7
:1027C000B091D104612C712C60E070E0109709F495
:1027D00049C0A815B905C9F5ED90FC90119767019E
:1027E00042E0C40ED11CCA14DB0478F147018A18F8
:1027F0009B08640142E0C40ED11C1296BC90129753
:102800001396AC91B5E0CB16D10440F0B282A3830D
:1028100091828082D9018D939C9309C00E5F1F4FD6
:102820000E0D1F1DF90111830083EB2DFA2F611589
:10283000710531F0DB011396FC93EE93129741C0C2
:10284000F093D104E093D0043CC06D917C9111973A
:102850006616770608F43B01BD0112960D90BC91F7
:10286000A02DB4CF6091CE047091CF046815790586
:10287000E9F468167906D0F4409100025091010203
:102880004115510541F44DB75EB760910402709156
:102890000502461B570BE417F507A8F4F093CF0485
:1028A000E093CE04F901918380830BC012DE7C019A
:1028B000009749F0A801BE0117D0CE01A2DEC701E2
:1028C00004C0CE0102C080E090E0DF91CF911F9163
:1028D0000F91FF90EF90DF90CF90BF90AF909F90BF
:1028E0008F907F906F900895FB01DC0102C00190F2
:1028F0000D9241505040D8F70895FB01DC01019042
:102900000D920020E1F708954532510518F4423048
:1029100008F004C0FB011082CB010895BB274A30A8
:1029200031F4992322F4BDE2909581959F4F3AC0EE
:102930002532310518F4223008F004C0FA01108263
:10294000CA010895BB272A3051F4992342F4BDE20D
:1029500090958095709561957F4F8F4F9F4F01C0E7
:10296000BB27FA01A62F6217710581059105330B6C
:1029700030FB66F0AA27660F771F881F991FAA1FD2
:10298000A21710F0A21B63953850A9F7A05DAA33D7
:1029900008F0A95DA19336F7B111B1931082CA0175
:1029A00019C0BB27FB015527AA27880F991FAA1F0B
:1029B000A41710F0A41B83955051B9F7A05DAA335A
:1029C00008F0A95DA193009779F7B111B193119225
:1029D000CB0100C0DC01FC01672F71917723E1F787
:1029E000329704C07C916D9370836291AE17BF07DC
:0829F000C8F30895F894FFCF2D
:1029F8000000D20480003200A0005A001500030035
:102A080002007B00000000007D1A0B1A0B1A0B1A3B
:102A18000B1A0B1A0B1A0B1A0B456E636F6465447D
:102A28006966663D00200064543D00424C444320E2
:102A3800456E61626C6500424C4443204469736191
:102A4800626C65004D4355207264733D004D4355DB
:102A58002056643D004D43552056713D0057617224
:102A6800726E696E672121215671206973203000CA
:102A78000000000098075D0AEF060807FA067707C6
:102A88000D0A006E616E00696E66006F7666002E34
:022A980000003C
:00000001FF
