:100000000BC100003AC1000038C1000036C1000039
:1000100034C1000032C1000030C100002EC1000018
:100020002CC100002AC1000028C1000026C1000028
:1000300024C1000022C1000020C100001EC1000038
:100040001CC100001AC1000018C1000016C1000048
:1000500014C1000012C1000010C100000C947A14F9
:100060000CC100000C946A100C94A01006C1000092
:1000700004C1000002C1000000C10000FEC0000079
:10008000FCC00000FAC00000F8C00000F6C000008C
:100090000C9415110C944B11F0C00000EEC0000040
:1000A000ECC00000EAC00000E8C00000E6C00000AC
:1000B000E4C00000E2C00000E0C00000DEC00000BC
:1000C000DCC00000DAC00000D8C000000C94C011F1
:1000D0000C94F611D2C000000C946B120C94A11277
:1000E000CCC000004A154D153C1540154615841529
:1000F000511555155B155F15631569156D1571154E
:10010000841577157B157F1500000A0B02090C0D6D
:100110000E080703040100000000000000000000BA
:1001200000000000000000000000000000000000CF
:10013000000000001211100000000000000000008C
:1001400000000000000000000000000000000102AC
:1001500010202008081020401020408002010201D9
:100160000804020101020408102040808040201091
:1001700008040201800402018040201008040201EA
:100180000804020101020408102040800102040852
:10019000102040800505050507050808080802022B
:1001A00002020A0A08080404040401010101010111
:1001B00001010303030303030303040707070C0CF4
:1001C0000C0C0C0C0C0C02020202060606060606BB
:1001D00006060B0B0B0B0B0B0B0B00002200250074
:1001E00028002B002E003100340002010000050120
:1001F00008010B0100002100240027002A002D0027
:100200003000330001010000040107010A015B0C0A
:10021000D2107D112812D31211241FBECFEFD1E2CC
:10022000DEBFCDBF00E00CBF14E0A0E0B2E0E4E62A
:10023000F5E300E00BBF02C007900D92A23FB107AB
:10024000D9F72CE0A2EFB4E001C01D92A638B207A6
:10025000E1F712E0C8E1D2E000E006C02297010910
:10026000FE010BBF0E94BF16CE30D10780E0080709
:10027000A9F70E946F140C94B01AC2CEFC01DB01E6
:1002800082818C93838111968C931197848112962D
:100290008C931297858113968C931397868114966D
:1002A0008C931497878115968C9315978085169655
:1002B0008C931697818517968C9388E090E008952B
:1002C000FC01DB014C9150E060E070E0428353831D
:1002D0006483758311968C911197582B42835383B5
:1002E0006483758312968C911297682B4283538393
:1002F0006483758313968C911397782B4283538371
:100300006483758314964C91149750E060E070E01C
:10031000468357836087718715968C911597582B64
:10032000468357836087718716968C911697682B42
:10033000468357836087718717968C91782B468305
:1003400057836087718788E090E0089586E092E0A7
:10035000089584E192E008956F927F928F929F9228
:10036000AF92BF92CF92DF92EF92FF920F931F93C3
:10037000CF93DF93FC01DB018C9190E09383828328
:1003800011962C911197922B9383828312964D9103
:100390005D916D917C9115975D0186E0A80EB11C71
:1003A0008A019B010A5F1F4F2F4F3F4F6501CA1AF9
:1003B000DB0AE12CF12CC016D106E206F30640F46C
:1003C000E501F9905E01CE010297EC01F882EECFD3
:1003D000ED01C40FD51F1D82CD0105969583848341
:1003E000ED01C40FD51FCE80DF80E884F984465F1D
:1003F0005F4F3D01640E751E8A01222717FD20956F
:10040000322F0C0D1D1D2E1D3F1D43018A1A9B0A04
:10041000A12CB12C80169106A206B30640F4E3018C
:1004200069913E01CE010297EC016883EECFC40EC4
:10043000D51E9D012C0D3D1DC9010197EC011882AF
:10044000415051094A0F5B1F57834683E9010881D8
:1004500019812A813B81D4E0CD0ED11C3D016C0C69
:100460007D1CA601662757FD6095762F400F511F12
:10047000621F731F43018A1A9B0AA12CB12C841698
:100480009506A606B70640F4E301F9903E01CE01B9
:100490000297EC01F882EECF0C0D1D1D9D01200F7F
:1004A000311FC9010197EC011882D1E0CD1AD108A2
:1004B000CA0EDB1ED186C086D90111968C91119788
:1004C00012964C91129750E060E070E0BA01552707
:1004D0004427582B8C91482B13968C91782B42876C
:1004E000538764877587C8010496DF91CF911F9168
:1004F0000F91FF90EF90DF90CF90BF90AF909F90C3
:100500008F907F906F90089585E392E008958EE438
:1005100092E00895AF92BF92CF92DF92EF92FF9256
:100520001F93CF93DF939C01FB018081D901129629
:100530008C9381819281A381B4815B01C5E0AC0E73
:10054000B11CAC01BD014B5F5F4F6F4F7F4F650129
:10055000CE1ADF0AE12CF12CC416D506E606F70602
:1005600050F4E501D9905E017E01D2E0ED1AF10868
:10057000E701D882ECCFEF01C80FD91F1C82349657
:10058000E901FC83EB830596DF91CF911F91FF90EA
:10059000EF90DF90CF90BF90AF9008958FE692E0FC
:1005A000089582E892E008958CE194E0089583EA4A
:1005B00092E00895FC01DB013281238194818581E1
:1005C0003C9311962C93119712969C931297139625
:1005D0008C931397368127819085818514963C935F
:1005E000149715962C93159716969C931697179615
:1005F0008C931797828518968C9389E090E00895E4
:10060000FC01DB0111968C91119712964C91129777
:1006100050E060E070E0BA0155274427582B8C91D8
:10062000482B13968C911397782B428353836483C2
:10063000758315968C91159716964C91169750E0E8
:1006400060E070E0BA0155274427582B14968C912E
:100650001497482B17968C911797782B46835783BE
:100660006087718718968C91828789E090E0089561
:1006700084EC92E0089589ED92E00895FC01DB019D
:1006800032812381948185813C9311962C9311971B
:1006900012969C93129713968C93139786811496B7
:1006A0008C931497878115968C93159730852185A7
:1006B0009285838516963C93169717962C931797D9
:1006C00018969C93189719968C93199784851A9667
:1006D0008C931A9785851B968C938CE090E00895F7
:1006E000FC01DB0111968C91119712964C91129797
:1006F00050E060E070E0BA0155274427582B8C91F8
:10070000482B13968C911397782B428353836483E1
:10071000758314968C91149790E097838683159631
:100720002C911597922B9783868317968C91179708
:1007300018964C91189750E060E070E0BA01552788
:100740004427582B16968C911697482B19968C9106
:100750001997782B40875187628773871A968C91F7
:100760001A9790E0958784871B962C91922B9587FA
:1007700084878CE090E008958AEF92E008958EE0FF
:1007800093E00895FC018281FB01808381E090E089
:100790000895FB012081FC01228381E090E008950F
:1007A00088E394E008958FE293E00895FC0182814C
:1007B000FB01808381E090E00895FB012081FC0132
:1007C000228381E090E0089588E394E008958FE229
:1007D00093E0089583E090E0089588E394E008951D
:1007E0008FE293E008950F931F93CF93DF93EC0173
:1007F0008C010A5F1F4FC80103DFE989FA89C8012C
:10080000DF91CF911F910F911994FC0183899489F5
:10081000089584EC92E0089589ED92E008958E5752
:100820009B4FFC0180810895AF92BF92CF92DF92DF
:10083000EF92FF920F931F93CF93DF93EC017B0115
:100840008A81DB018C938B8111968C93EC81FD81E5
:10085000DF010D900020E9F7CD0101976C01CE1A60
:10086000DF0AC601A0E0B0E0FB0182839383A4838A
:10087000B5836C817D81A601C70106960E94A71AE7
:10088000EE81FF81DF010D900020E9F7CD01019796
:100890005C01AE1ABF0AF701EC0DFD1D850120E0D9
:1008A00030E006831783208731879AE0C90ED11C78
:1008B0006E817F81A501C7018C0D9D1D0E94A71A25
:1008C000CA0CDB1CE885F985DF010D900020E9F7F3
:1008D000CD0101975C01AE1ABF0AF701EC0DFD1DB9
:1008E000850120E030E0008311832283338394E08C
:1008F000C90ED11C68857985A501C7018C0D9D1D88
:100900000E94A71AAC0CBD1C3A852B859C858D8551
:10091000F701EA0DFB1D3083218392838383C50198
:100920000496DF91CF911F910F91FF90EF90DF9090
:10093000CF90BF90AF9008950F931F93CF93DF9305
:10094000DC01FB0112968C911297808313968D9196
:100950009C911497EC0109900020E9F72197C81B9E
:10096000D90B8E0120E030E001831283238334838E
:1009700013966D917C911497AE01CF0105960E945C
:10098000A71ACE010596DF91CF911F910F9108957F
:10099000BF92CF92DF92EF92FF920F931F93CF936C
:1009A000DF93EC017B018A81DB018C9311961C9211
:1009B000119712961C92129713961C92FB01379670
:1009C00040E024E030E05A81C90104964517E0F484
:1009D000AF81B88524E0429FA00DB11D11246C9118
:1009E00011965C91119712963C91129713962C9147
:1009F000DF0113976C9311965C9311963C932083BF
:100A00009C014F5F3496DFCF4985F701E20FF31F5A
:100A1000408311821282138220E03985F701E80FAA
:100A2000F91F04962317B0F4AE85BF8534E0239FE9
:100A3000A00DB11D11246C9111965C911197129625
:100A40004C91129713963C91608351834283338378
:100A50002F5FE3CF28892083118212821382B12C69
:100A60002889B21698F54B2D50E0440F551FEB899D
:100A7000FC89E40FF51F0190F081E02DDF010D905E
:100A80000020E9F79D01215031096901CE1ADF0AE2
:100A9000F701E80FF91F860120E030E000831183A1
:100AA000228333838C010C5F1F4FEB89FC89E40F99
:100AB000F51F60817181A601C701800F911F0E94FF
:100AC000A71AC601800F911FB394CACFDF91CF91AF
:100AD0001F910F91FF90EF90DF90CF90BF900895FE
:100AE0004F925F927F928F929F92AF92BF92CF92DE
:100AF000DF92EF92FF920F931F93CF93DF93EC015E
:100B00008B01DB01FC908A818F1550F4B4E0FB9ED1
:100B1000B00111248F8198850E94C31998878F8313
:100B2000FA82F8013796F12C44E050E09E012D5FE7
:100B30003F4F8A81BA016C5F7F4F6B01F81660F5F9
:100B4000408150E060E070E0742F6627552744270D
:100B5000DF0113978C91482B11968C91582B11968D
:100B60008C91682B4B835C836D837E83A6016F81A0
:100B7000788584E0F89E600D711D1124D9018D9057
:100B80009D90AD90BC90DB018D929D92AD92BC92F8
:100B90001397F3943496CDCFF801E40FF51FF0804E
:100BA00089858F1550F484E0F89EB00111248E855C
:100BB0009F850E94C3199F878E879601F98680E0E2
:100BC000FE013A969985D801A20FB31FA9014C5F87
:100BD0005F4F6A01891748F511969C9111971296FB
:100BE0004C91129750E060E070E0BA01552744271D
:100BF000592B9C91492B13969C91792B4A875B87A3
:100C00006C877D879601AE85BF8594E0899FA00D96
:100C1000B11D112440815181628173814D935D9397
:100C20006D937C9313978F5FCDCFFC9088898F1540
:100C300050F46F2D70E0660F771F8B899C890E949E
:100C4000C3199C8B8B8BC601F88A712C2E0151E144
:100C5000450E511C2889721608F044C0F801E80FAF
:100C6000F91FC080D180E280F3800496F801E80F7C
:100C7000F91FAC01662757FD6095762F4C0D5D1D61
:100C80006E1D7F1D9F01201B310B4901A12CB12C32
:100C900084169506A606B70638F4B1909F01225037
:100CA0003109D901BC92EECFC80ED91EF801EC0D66
:100CB000FD1D319710829C0121503109200F311FF9
:100CC0003A8B298BC6013B892C89E32FF22FE70D44
:100CD000F11DE70DF11DD2012D913C91318320834F
:100CE0007394B8CFDF91CF911F910F91FF90EF9048
:100CF000DF90CF90BF90AF909F908F907F905F904C
:100D00004F900895AF92BF92CF92DF92EF92FF92F1
:100D10000F931F93CF93DF9300D01F921F92CDB7F5
:100D2000DEB78C016B01643671053CF0FC01EE57B7
:100D3000FB4F8081882309F479C0DA01ED91FC91A1
:100D40000190F081E02DB801655E7D4FCA011995D3
:100D50007C015801BCEEAB1ABDEFBB0A2FEFF501C9
:100D600020832EEF319620833196808331969083B5
:100D7000890F8095319680833196C0823196D082DA
:100D800085E090E020E030E0A701495F5F4F8417E5
:100D9000950750F4F801E80FF91FEC5EFD4F6081F4
:100DA000260F311D0196F3CFF8E0EF0EF11C400F36
:100DB000511FFA01EC5EFD4F2095208321E0E216E1
:100DC00022E0F206C8F46501C6018A199B098E1556
:100DD0009F0584F4D80112968D919C911397F6018A
:100DE00061916F01DC01ED91FC910190F081E02DAA
:100DF0001995EACFC7011CC08CE694E09A838983D9
:100E000083E08B8380E593E09D838C83D801ED9113
:100E1000FC910190F081E02DAE014F5F5F4F67E0E4
:100E200070E0C80119958FEF9FEF02C080E090E05D
:100E30000F900F900F900F900F90DF91CF911F9117
:100E40000F91FF90EF90DF90CF90BF90AF900895FB
:100E5000DC01ED91FC910280F381E02D19940F9358
:100E60001F93CF93DF938C01EB01FC018281809370
:100E7000EC09882371F081E08A8341E050E069E861
:100E800073E082EA9AE0E4DF41E050E069E873E071
:100E90000CC01A8241E050E06BE873E082EA9AE00D
:100EA000D7DF41E050E06BE873E08FE39BE0D0DFF9
:100EB0006DE873E085E09AE00E945413F8016281C6
:100EC00070E04AE050E085E09AE00E940A1469E987
:100ED00073E085E09AE00E9454136A8170E04AE072
:100EE00050E085E09AE0DF91CF911F910F910C9433
:100EF0000314DC01ED91FC910190F081E02D199437
:100F0000CF93DF93AB01EC01AE81BF81ED91FC91FA
:100F100011976C817D810190F081E02DCD01DF91F1
:100F2000CF9119940F931F93CF93DF93EC01FB01A3
:100F3000808188878E01075F1F4FEE89FF89B80186
:100F4000CE0106961995B801CE010C96DF91CF918E
:100F50001F910F91D5CF61E084E30E94851561E078
:100F600085E30E94851580E092ECA1E0B0E08093DB
:100F70003B0590933C05A0933D05B0933E0526E0CC
:100F800040E052EC61E070E08091390590913A05C3
:100F90000E940A101092B0091092AF091092B20983
:100FA0001092B1091092B6091092B5091092B409C5
:100FB0001092B309EDE7F9E080E090E021913191E2
:100FC000232B81F4FC01EE0FFF1FE358F64F2AE0BC
:100FD00035E0318320838C599F4F90930D0580938A
:100FE0000C0504C001968931910541F7EBE4F9E065
:100FF00080E090E021913191232BB1F4FC01EE0FC0
:10100000FF1FE55BF64F2FE135E0318320838358E6
:101010009F4F909324058093230587E395E0909359
:1010200026058093250504C001968931910511F7A5
:10103000EBE4F9E080E090E021913191232BB1F4D1
:10104000FC01EE0FFF1FE55BF64F2EEF34E031831E
:10105000208383589F4F909303058093020587E375
:1010600095E0909305058093040504C001968931AD
:10107000910511F7EDE7F9E080E090E021913191E1
:10108000232B81F4FC01EE0FFF1FE358F64F22EFF4
:1010900034E0318320838C599F4F9093F5048093E3
:1010A000F40404C001968931910541F765EA73E0C3
:1010B00085E09AE00E945F138DEF99E00E9426166A
:1010C0008823D1F361E084E30E94BE1561E085E3EB
:1010D0000E94BE156BEC73E085E09AE00E945F13FE
:1010E00026E040E052EC61E070E082EA9AE092D7BC
:1010F00026E040E052EC61E070E08FE39BE08AD7AD
:1011000026E040E052EC61E070E08CED9BE082C7AD
:101110000F931F93CF93DF93CDB7DEB72A970FB608
:10112000F894DEBF0FBECDBF8C0184E594E09A83B6
:1011300089831B821C821D821E821F82188619864B
:101140001A86D801ED91FC910190F081E02DAE015D
:101150004F5F5F4F6AE070E0C80119950E94C414A8
:10116000F80160877187828793872A960FB6F89473
:10117000DEBF0FBECDBFDF91CF911F910F910895BC
:101180004F925F926F927F928F929F92AF92BF9297
:10119000CF92DF92EF92FF920F931F93CF93DF9343
:1011A000CDB7DEB72E970FB6F894DEBF0FBECDBF1A
:1011B0008C0180E694E09A8389831C821B8284EEF2
:1011C00094E09E838D8398878F839A8789871B8677
:1011D0001C861D861E86580182E3A80EB11C78016C
:1011E000412C62E0562E612C712C6701ACEECA1ABC
:1011F000ABEFDA0AD601ED91FC913097B9F1848119
:1012000095819C838B83808191819E838D83828154
:101210009381DC01ED91FC910480F581E02D19951D
:1012200098878F83D601ED91FC9182819381DC01B7
:10123000ED91FC910680F781E02D19959A878987B9
:101240004B865C866D867E86F80180819181F601F1
:10125000A081B18118966D917C911997DC01ED9177
:10126000FC91AE014F5F5F4FC8011995B2E0EB0EE4
:10127000F11CEA14FB0409F0B8CF7801412C52E0CC
:10128000552E612C712C6701EAEBCE1AEBEFDE0ACA
:10129000F601A081B1811097E1F112968D919C9198
:1012A00013979C838B8314968D919C9115979E83A5
:1012B0008D83ED91FC9111970480F581E02DCD0196
:1012C000199598878F83D6018D919C91DC01ED91C2
:1012D000FC910680F781E02D19959A8789874B86C6
:1012E0005C866D867E86D801ED91FC918080918030
:1012F000F60180819181DC01ED91FC910280F38106
:10130000E02D1995AE014F5F5F4FBC01C801F4019C
:101310001995F2E0EF0EF11CEA14FB0409F0B3CFCB
:10132000F801EE57FB4F81E080832E960FB6F894BC
:10133000DEBF0FBECDBFDF91CF911F910F91FF9008
:10134000EF90DF90CF90BF90AF909F908F907F9065
:101350006F905F904F9008958F929F92AF92BF923F
:10136000CF92DF92EF92FF920F931F93CF93DF9371
:10137000CDB7DEB72A970FB6F894DEBF0FBECDBF4C
:101380008C015B0184E594E09A8389831B821C8233
:101390001D821E821F82188619861A860E94C41416
:1013A0006B017C01F80180859185A285B385C81AFF
:1013B000D90AEA0AFB0AB501CE0101960E94600132
:1013C00078EE872E73E0972EA12CB12CC701B601C1
:1013D000A50194010E948D1669017A019B01AC015F
:1013E0008B819C81AD81BE818C0D9D1DAE1DBF1D6D
:1013F0008B839C83AD83BE8360E472E48FE090E0D6
:101400000E946B16CF80D884E984FA84C60ED71E5A
:10141000E81EF91ECF82D886E986FA860E94C41497
:10142000CB80DC80ED80FE80F1E0CF1AD108E108AE
:10143000F108A50194010E948D1649015A019B01F2
:10144000AC01C818D908EA08FB08F801C486D5869B
:10145000E686F786CF80D884E984FA84F6E3DF1A3B
:10146000F5E6EF0AF4ECFF0A60E472E48FE090E046
:101470000E946B16C61AD70AE80AF90AF801C08A50
:10148000D18AE28AF38AB801605F7F4FC8010C9667
:101490000E94F3150E94C414F801E957FB4F6083C2
:1014A0007183828393832A960FB6F894DEBF0FBEB2
:1014B000CDBFDF91CF911F910F91FF90EF90DF9003
:1014C000CF90BF90AF909F908F9008952F923F92B2
:1014D0004F925F926F927F928F929F92AF92BF9244
:1014E000CF92DF92EF92FF920F931F93CF93DF93F0
:1014F000CDB7DEB760970FB6F894DEBF0FBECDBF95
:101500004C010E94C4146B017C01940129573B4F8C
:101510003E832D83F90180819181A281B381A7014E
:101520009601281B390B4A0B5B0BDA01C901893F75
:101530009A42A105B10510F035971082A4014858D0
:101540005B4F588B4F87DA018D919C91892B79F0F5
:10155000F401E557FB4F80819181A281B3818C1505
:101560009D05AE05BF0518F4FA0111821082340101
:10157000F0E86F1AFBEF7F0A940124583B4F3A833F
:101580002983A4014E575B4F58874F832C5E3F4FF2
:101590003C872B87435F5F4F5E874D8784010658EA
:1015A0001B4F1601270154E1250E311C411C511C13
:1015B000540184E1A80EB11C940122583B4F3C8396
:1015C0002B83A40145575B4F5A874987D401129654
:1015D0008D919C911397DC01ED91FC910680F78130
:1015E000E02D19959C0197FD28C1F301808191811F
:1015F000820F931F91838083AF85B8894D915C9151
:1016000047305105E1F4EB81FC8180819181AC018F
:101610004F5F5F4F51834083F401E80FF91F248B24
:10162000D8018D919C91119701978D939C93892B53
:1016300009F0BECF28E030E0EF85F88986C041157B
:10164000510519F52F3F310569F481E090E0AF8530
:10165000B8898D939C93E985FA85208231824282F4
:101660005382B4CF0E94C4146C197D098E099F095E
:10167000663071058105910508F49ACFF401EE57A3
:10168000FB4F10828EEF9FEFFDC04130510591F46A
:101690002E3F310519F482E090E02EC0EF85F889E5
:1016A00011821082AF81B8858C91811181CFC401E4
:1016B0002FDD8CCF4230510589F4F801318320832E
:1016C000AB81BC811D921C9283E090E0EF85F8898C
:1016D00091838083D3012D933C9378CF4330510580
:1016E00081F4322F2227F80180819181820F931F8C
:1016F0009183808384E090E0AF85B8898D939C933B
:1017000065CF4430510599F460E071E00E947A168B
:101710008F3F910539F485E090E0EF85F88991835A
:10172000808354CFAF85B8891D921C924FCF45302E
:10173000510571F4E981FA813183208386E090E0DC
:10174000AF85B8898D939C93F301318320833ECF7D
:1017500046305105D1F4322F2227A981BA818D91CB
:101760009C911197820F931F8D939C9327E030E0FB
:10177000EF85F88931832083D8018D919C91892B45
:1017800009F016CF28E030E0E0CF4830510509F0ED
:101790000FCFAF85B8891D921C9260E071E00E9466
:1017A0007A168F3F910509F003CFA981BA81ED9197
:1017B000FC913097A1F4C401ABDCC401E1DCF4017D
:1017C000ED57FB4FC082D182E282F382ED81FE8130
:1017D000C082D182E282F3828FEF9FEF53C0EA3062
:1017E000F10521F4B501C401B7DDF0CEE630F10515
:1017F00049F4B5018B859C8573D981E0AD85BE85A3
:101800008C93E4CEEB30F10521F4EF81F885108262
:10181000DDCEE154FE4FEE0FFF1FE80DF91D808174
:101820009181009709F4C4CEDC01ED91FC91019007
:10183000F081E02DB5011995C9CEF401EE57FB4FAB
:1018400080818823E9F084010D571B4FF8018081C6
:101850009181A281B381A7019601281B390B4A0B04
:101860005B0BDA01C901853C9940A105B10540F047
:10187000C4014EDCD801CD92DD92ED92FC9213971B
:1018800080E090E060960FB6F894DEBF0FBECDBF4B
:10189000DF91CF911F910F91FF90EF90DF90CF904C
:1018A000BF90AF909F908F907F906F905F904F9080
:1018B0003F902F90089548E853E160E070E08DEF8D
:1018C00099E00E94201684EB94E090933805809371
:1018D000370585E09AE090933A058093390580E0DA
:1018E00091EEA0E0B0E080933B0590933C05A0937F
:1018F0003D05B0933E051092B90988E794E09093B6
:10190000C8098093C7091092C9091092CF09109293
:10191000CE091092D0091092D6091092D5091092D2
:10192000D7091092DB091092DA09EBE4F9E0119281
:10193000119289E0ED37F807D1F7EDE7F9E0119260
:10194000119289E0EF3AF807D1F7EBE4F5E0119254
:1019500087E0EB34F807D9F7EBE4F7E0119289E080
:10196000EB34F807D9F780E994E090932A05809347
:10197000290510922B0510922C0510922D0510921E
:101980002E051092300510922F05109231051092FD
:1019900032051092330510923405109236051092DC
:1019A000350589ED93E09093200580931F0589E22A
:1019B00095E09093220580932105109228051092BE
:1019C00027058EEB94E090930B0580930A0584E83D
:1019D00094E09093110580931005109212051092D7
:1019E0001305109214051092150510921605109209
:1019F0001705109218051092190510921A058EEF0E
:101A00009DE090931C0580931B0581E090E09093EE
:101A10001E0580931D0583EF93E090930F0580933F
:101A20000E058AEC94E09093F3048093F2048CE921
:101A300094E09093F9048093F8041092FA0488EAF1
:101A400094E09093FC048093FB041092FD0488E0E2
:101A500094E09093FF048093FE042BEF34E03093E6
:101A600001052093000522E030E030930705209324
:101A700006059093F7048093F6048FE297E0909325
:101A80000905809308050895CF92DF92EF92FF92A7
:101A9000C090F909D090FA09E090FB09F090FC0998
:101AA00026E53EE049EC50E4C701B6010E94351836
:101AB00018162CF486E59EE0A9ECB0E40EC026E5ED
:101AC0003EE049EC50ECC701B6010E94E61687FFE4
:101AD0000CC086E59EE0A9ECB0EC8093F9099093E8
:101AE000FA09A093FB09B093FC0928EE3FE049E412
:101AF00059E36091F9097091FA098091FB0990917D
:101B0000FC090E94EA160E945217F62EE72E6093F7
:101B1000E0097093E1096BE770E08FE39BE0E9D99E
:101B20006E2D8FE39BE012D26F2D8FE39BE00ED2E0
:101B30006DE770E08FE39BE0FF90EF90DF90CF9038
:101B4000D8C9CF92DF92EF92FF92C090F509D09062
:101B5000F609E090F709F090F80926E53EE049EC37
:101B600050E4C701B6010E94351818162CF486E51A
:101B70009EE0A9ECB0E40EC026E53EE049EC50EC56
:101B8000C701B6010E94E61687FF0CC086E59EE0FD
:101B9000A9ECB0EC8093F5099093F609A093F709AE
:101BA000B093F80928EE3FE049E459E36091F50964
:101BB0007091F6098091F7099091F8090E94EA1650
:101BC0000E945217F62EE72E6093DC097093DD0910
:101BD0006BE770E082EA9AE08CD96E2D82EA9AE097
:101BE000B5D16F2D82EA9AE0B1D16DE770E082EA5B
:101BF0009AE0FF90EF90DF90CF907BC9FC0142818B
:101C00005381648175814093F9095093FA09609377
:101C1000FB097093FC0986819781A085B18580932B
:101C2000F5099093F609A093F709B093F8092CDF12
:101C300088CFCF93DF9300D0CDB7DEB78FE39BE0A3
:101C4000DDD004977CF18FE39BE0F1D08B3751F529
:101C500043E050E0BE016F5F7F4F8FE39BE01CD6F7
:101C600069818A819B819D37E9F470E0762F662730
:101C7000680F711D7093E3096093E209882777FD6F
:101C80008095982F0E94851728EE3FE049E459E39C
:101C90000E9439186093F1097093F2098093F30957
:101CA0009093F4090F900F900F90DF91CF910895CA
:101CB000CF93DF9300D0CDB7DEB782EA9AE09ED013
:101CC00004977CF182EA9AE0B2D08B3751F543E079
:101CD00050E0BE016F5F7F4F82EA9AE0DDD56981F7
:101CE0008A819B819D37E9F470E0762F6627680F23
:101CF000711D7093DF096093DE09882777FD809559
:101D0000982F0E94851728EE3FE049E459E30E948E
:101D100039186093ED097093EE098093EF09909361
:101D2000F0090F900F900F90DF91CF9108950F93CE
:101D30001F937FDFBDDF28D60091E8091091E909E4
:101D40002091EA093091EB09601B710B820B930B18
:101D5000643671058105910508F44BC015D60091D4
:101D6000E8091091E9092091EA093091EB09601B1B
:101D7000710B820B930B6093E4097093E5098093D8
:101D8000E6099093E70900D66093E8097093E909A2
:101D90008093EA099093EB098091F1099091F209FF
:101DA000A091F309B091F40980932B0590932C0531
:101DB000A0932D05B0932E058091ED099091EE0929
:101DC000A091EF09B091F00980933105909332050D
:101DD000A0933305B09334051092300510922F056F
:101DE000109236051092350569E275E08FE195E0B5
:101DF00087D887E395E01F910F9168CBFC01818D17
:101E0000228D90E0805C9F4F821B91098F739927F0
:101E10000895FC01918D828D981731F0828DE80F25
:101E2000F11D858D90E008958FEF9FEF0895FC01DF
:101E3000918D828D981761F0828DDF01A80FB11D01
:101E40005D968C91928D9F5F9F73928F90E0089525
:101E50008FEF9FEF089589EC90E1892B39F080E0B6
:101E600090E0892B19F095D1811122C084E791E18E
:101E7000892B39F080E090E0892B19F035D281115F
:101E80001AC08FE192E1892B39F080E090E0892B34
:101E900019F0D5D2811112C08AEC92E1892B99F008
:101EA00080E090E0892B79F075D381110AC0089504
:101EB0000E940000DBCF0E940000E3CF0E940000E0
:101EC000EBCF0C9400000895FC01848DDF01A80F76
:101ED000B11DA35ABF4F2C91848D90E001968F7352
:101EE0009927848FA689B7892C93A089B1898C9171
:101EF00080648C93938D848D981306C00288F38937
:101F0000E02D80818F7D80830895CF93DF93EC0156
:101F1000888D8823C1F0EA89FB89808185FD05C011
:101F2000A889B9898C9186FD0EC00FB607FCF5CF44
:101F3000808185FFF2CFA889B9898C9185FFEDCF8B
:101F4000CE01C2DFE8CFDF91CF910895CF92DF922B
:101F5000FF920F931F93CF93DF931F92CDB7DEB7FE
:101F60006C0181E0D60158968C9358975B969C91B2
:101F70005B975C968C915C97981307C05096ED9197
:101F8000FC915197808185FD2DC0F601038D10E0F5
:101F90000F5F1F4F0F731127F02EF601848DF8127B
:101FA00010C00FB607FCF9CFD6015096ED91FC9109
:101FB0005197808185FFF1CFC601698385DF6981F3
:101FC000ECCF838DE80FF11DE35AFF4F6083D601FC
:101FD0005B960C935B975296ED91FC9153978081A1
:101FE00080620CC0D6015696ED91FC9157976083A4
:101FF0005096ED91FC91519780818064808381E0BF
:1020000090E00F90DF91CF911F910F91FF90DF90A3
:10201000CF900895BF92CF92DF92EF92FF92CF932D
:10202000DF93EC016A017B01B22EE889F98982E035
:102030008083411581EE58076105710599F060E0D4
:1020400079E08DE390E0A701960167D62150310930
:10205000410951095695479537952795211580E1F6
:10206000380790F0E889F989108260E874E88EE119
:1020700090E0A701960151D621503109410951093B
:102080005695479537952795EC85FD853083EE85E8
:10209000FF852083188EEC89FD89B082EA89FB894F
:1020A000808180618083EA89FB8980818860808368
:1020B000EA89FB89808180688083EA89FB89808145
:1020C0008F7D8083DF91CF91FF90EF90DF90CF9055
:1020D000BF9008951F920F920FB60F9211240BB666
:1020E0000F922F938F939F93EF93FF93E091150A95
:1020F000F091160A8081E0911B0AF0911C0A82FD82
:1021000012C0908180911E0A8F5F8F7320911F0AE9
:10211000821751F0E0911E0AF0E0EB5FF54F958FCA
:1021200080931E0A01C08081FF91EF919F918F9152
:102130002F910F900BBE0F900FBE0F901F90189510
:102140001F920F920FB60F9211240BB60F922F937E
:102150003F934F935F936F937F938F939F93AF932F
:10216000BF93EF93FF9385E09AE0AEDEFF91EF918E
:10217000BF91AF919F918F917F916F915F914F919F
:102180003F912F910F900BBE0F900FBE0F901F909D
:10219000189585E09AE032DE21E0892B09F420E0F1
:1021A000822F08951092080A1092070A88EE93E091
:1021B000A0E0B0E08093090A90930A0AA0930B0A6A
:1021C000B0930C0A86ED94E09093060A8093050A7A
:1021D00085EC90E09093120A8093110A84EC90E0D1
:1021E0009093140A8093130A80EC90E09093160A5F
:1021F0008093150A81EC90E09093180A8093170A57
:1022000082EC90E090931A0A8093190A86EC90E091
:1022100090931C0A80931B0A10921E0A10921F0AA8
:102220001092200A1092210A08951F920F920FB661
:102230000F9211240BB60F922F938F939F93EF93CE
:10224000FF93E091B20AF091B30A8081E091B80A5D
:10225000F091B90A82FD12C090818091BB0A8F5F14
:102260008F732091BC0A821751F0E091BB0AF0E015
:10227000EE55F54F958F8093BB0A01C08081FF9189
:10228000EF919F918F912F910F900BBE0F900FBEEA
:102290000F901F9018951F920F920FB60F92112456
:1022A0000BB60F922F933F934F935F936F937F9350
:1022B0008F939F93AF93BF93EF93FF9382EA9AE03C
:1022C00003DEFF91EF91BF91AF919F918F917F912D
:1022D0006F915F914F913F912F910F900BBE0F9097
:1022E0000FBE0F901F90189582EA9AE087DD21E0DB
:1022F000892B09F420E0822F08951092A50A1092EC
:10230000A40A88EE93E0A0E0B0E08093A60A909340
:10231000A70AA093A80AB093A90A86ED94E0909327
:10232000A30A8093A20A8DEC90E09093AF0A809369
:10233000AE0A8CEC90E09093B10A8093B00A88ECDE
:1023400090E09093B30A8093B20A89EC90E0909366
:10235000B50A8093B40A8AEC90E09093B70A809310
:10236000B60A8EEC90E09093B90A8093B80A109266
:10237000BB0A1092BC0A1092BD0A1092BE0A0895C0
:102380001F920F920FB60F9211240BB60F922F933C
:102390008F939F93EF93FF93E0914F0BF091500B2E
:1023A0008081E091550BF091560B82FD12C0908117
:1023B0008091580B8F5F8F732091590B821751F0CA
:1023C000E091580BF0E0E15CF44F958F8093580B4F
:1023D00001C08081FF91EF919F918F912F910F907C
:1023E0000BBE0F900FBE0F901F9018951F920F926B
:1023F0000FB60F9211240BB60F922F933F934F936A
:102400005F936F937F938F939F93AF93BF93EF935C
:10241000FF938FE39BE058DDFF91EF91BF91AF9168
:102420009F918F917F916F915F914F913F912F91EC
:102430000F900BBE0F900FBE0F901F9018958FE35B
:102440009BE0DCDC21E0892B09F420E0822F089559
:102450001092420B1092410B88EE93E0A0E0B0E0A6
:102460008093430B9093440BA093450BB093460B82
:1024700086ED94E09093400B80933F0B85ED90E0C8
:1024800090934C0B80934B0B84ED90E090934E0B0C
:1024900080934D0B80ED90E09093500B80934F0B09
:1024A00081ED90E09093520B8093510B82ED90E080
:1024B0009093540B8093530B86ED90E09093560BC2
:1024C0008093550B1092580B1092590B10925A0B87
:1024D00010925B0B08951F920F920FB60F9211246A
:1024E0000BB60F922F938F939F93EF93FF93E091EF
:1024F000EC0BF091ED0B8081E091F20BF091F30B7E
:1025000082FD12C090818091F50B8F5F8F732091B7
:10251000F60B821751F0E091F50BF0E0E452F44F26
:10252000958F8093F50B01C08081FF91EF919F9172
:102530008F912F910F900BBE0F900FBE0F901F9099
:1025400018951F920F920FB60F9211240BB60F928F
:102550002F933F934F935F936F937F938F939F93AB
:10256000AF93BF93EF93FF938CED9BE0ADDCFF91B6
:10257000EF91BF91AF919F918F917F916F915F91FB
:102580004F913F912F910F900BBE0F900FBE0F9068
:102590001F9018958CED9BE031DC21E0892B09F42C
:1025A00020E0822F08951092DF0B1092DE0B88EE50
:1025B00093E0A0E0B0E08093E00B9093E10BA09358
:1025C000E20BB093E30B86ED94E09093DD0B8093E8
:1025D000DC0B85E391E09093E90B8093E80B84E3B7
:1025E00091E09093EB0B8093EA0B80E391E0909362
:1025F000ED0B8093EC0B81E391E09093EF0B8093D4
:10260000EE0B82E391E09093F10B8093F00B86E365
:1026100091E09093F30B8093F20B1092F50B1092D4
:10262000F60B1092F70B1092F80B0895CF92DF92F1
:10263000EF92FF920F931F93CF93DF937C016A0178
:10264000EB0100E010E00C151D0571F06991D70158
:10265000ED91FC910190F081E02DC7011995892B36
:1026600019F00F5F1F4FEFCFC801DF91CF911F917E
:102670000F91FF90EF90DF90CF9008956115710555
:1026800081F0DB010D900020E9F7AD0141505109C7
:10269000461B570BDC01ED91FC910280F381E02D8C
:1026A000199480E090E00895E9CFDC01ED91FC9170
:1026B0000190F081E02D199462EE74E0DFCF0F936A
:1026C0001F93CF93DF93EC01D9DF8C01CE01F4DFB0
:1026D000800F911FDF91CF911F910F9108958F92DD
:1026E0009F92AF92BF92DF92EF92FF920F931F9350
:1026F000CF93DF93CDB7DEB7A1970FB6F894DEBFC7
:102700000FBECDBF7C01F42FD52ECB0119A22230F4
:1027100008F42AE08E010F5D1F4F822E912CA12C10
:10272000B12C6F2F7D2DA5019401F7D2F22FD32E5E
:10273000CA01015011096A3014F4E0E301C0E7E373
:10274000E60FD801EC93232B242B252B51F7B8014E
:10275000C70194DFA1960FB6F894DEBF0FBECDBFC0
:10276000DF91CF911F910F91FF90EF90DF90BF907D
:10277000AF909F908F900895CF92DF92EF92FF924B
:102780000F931F93CF93DF93EC016A017B01211517
:10279000310579F4E881F9810190F081E02D642F11
:1027A000DF91CF911F910F91FF90EF90DF90CF902D
:1027B00019942A303105D9F477FF18C06DE275DF1E
:1027C0008C0144275527BA014C195D096E097F0910
:1027D0002AE0CE0184DF800F911FDF91CF911F91FE
:1027E0000F91FF90EF90DF90CF9008952AE0B7010E
:1027F000A601CE01DF91CF911F910F91FF90EF9035
:10280000DF90CF906CCF9A01AB01662757FD6095A2
:10281000762FB2CF0F931F93CF93DF93EC019A01E2
:10282000AB01662757FD6095762FA6DF8C01CE01A0
:1028300043DF800F911FDF91CF911F910F9108957A
:102840000F931F93CF93DF93EC019ED06887798716
:102850008A879B87E881F9810680F781E02DCE0188
:10286000199597FF14C090D0088519852A853B8556
:10287000601B710B820B930B0C811D812E813F819C
:10288000601771078207930728F38FEF9FEFDF919F
:10289000CF911F910F910895CF92DF92EF92FF9207
:1028A0000F931F93CF93DF937C016A01EB0100E04C
:1028B00010E00C151D0541F0C701C2DF97FD04C0F3
:1028C00089930F5F1F4FF5CFC801DF91CF911F9103
:1028D0000F91FF90EF90DF90CF900895089560D012
:1028E000FDDF0E94AB07CBE2DFE021DA2097E9F3BE
:1028F000B2DAFBCF1F920F920FB60F9211242F93D3
:102900003F938F939F93AF93BF9380917A0C909155
:102910007B0CA0917C0CB0917D0C3091790C23E064
:10292000230F2D3720F40196A11DB11D05C026E807
:10293000230F0296A11DB11D2093790C80937A0C70
:1029400090937B0CA0937C0CB0937D0C80917E0CBB
:1029500090917F0CA091800CB091810C0196A11DEB
:10296000B11D80937E0C90937F0CA093800CB0934C
:10297000810CBF91AF919F918F913F912F910F90BB
:102980000FBE0F901F9018952FB7F89460917A0C96
:1029900070917B0C80917C0C90917D0C2FBF0895E1
:1029A000789484B5826084BD84B5816084BD85B52A
:1029B000826085BD85B5816085BDEEE6F0E08081F1
:1029C00081608083E1E8F0E0108280818260808312
:1029D000808181608083E0E8F0E080818160808395
:1029E000E1EBF0E0808184608083E0EBF0E08081C7
:1029F00081608083E1E9F0E0808182608083808172
:102A000081608083E0E9F0E0808181608083E1EA99
:102A1000F0E0808182608083808181608083E0EA51
:102A2000F0E0808181608083E1E2F1E0808182607A
:102A30008083808181608083E0E2F1E08081816039
:102A40008083EAE7F0E08081846080838081826017
:102A50008083808181608083808180688083109200
:102A6000C100089590E0FC013197E231F10508F0D2
:102A70004BC0EE58FF4F73C1809180008F7703C029
:102A8000809180008F7D80938000089580918000E8
:102A9000877FF9CF84B58F7702C084B58F7D84BDE1
:102AA00008958091B0008F7703C08091B0008F7D32
:102AB0008093B0000895809190008F7707C0809137
:102AC00090008F7D03C080919000877F809390005D
:102AD00008958091A0008F7707C08091A0008F7D1E
:102AE00003C08091A000877F8093A000089580910B
:102AF00020018F7707C0809120018F7D03C08091D6
:102B00002001877F809320010895CF93DF9390E089
:102B1000FC01E25BFE4F2491FC01EC56FE4F8491D8
:102B2000882349F190E0880F991FFC01EC50FE4F7B
:102B3000A591B49186529E4FFC01C591D4919FB747
:102B4000611108C0F8948C91209582238C93888120
:102B500082230AC0623051F4F8948C91322F309560
:102B600083238C938881822B888304C0F8948C9172
:102B7000822B8C939FBFDF91CF9108950F931F936A
:102B8000CF93DF931F92CDB7DEB7282F30E0F90146
:102B9000E85FFE4F8491F901E25BFE4F1491F90169
:102BA000EC56FE4F04910023C1F0882319F069838D
:102BB00059DF6981E02FF0E0EE0FFF1FE652FE4F74
:102BC000A591B4919FB7F8948C91611103C01095B1
:102BD000812301C0812B8C939FBF0F90DF91CF91F8
:102BE0001F910F910895CF92DF92EF92FF920F9372
:102BF0001F93CF93DF938C01EB01688179818A81E8
:102C00009B8120E03AEC4AE95BE387D0F801C08081
:102C1000D180E280F380C20ED31EE41EF51EC08276
:102C2000D182E282F382688379838A839B83DF91F6
:102C3000CF911F910F91FF90EF90DF90CF9008956B
:102C4000FC01448355836683778308958F929F9216
:102C5000AF92BF92CF92DF92EF92FF920F931F93AA
:102C6000CF93DF93EC0190DE8C809D80AE80BF809F
:102C700081149104A104B10429F4688379838A83BF
:102C80009B8319C0088119812A813B816B017C01DA
:102C9000C01AD10AE20AF30AC814D904EA04FB04F0
:102CA00060F0B901A801480D591D6A1D7B1D4883BC
:102CB00059836A837B8381E001C080E0DF91CF91FB
:102CC0001F910F91FF90EF90DF90CF90BF90AF904A
:102CD0009F908F900895DB018F939F9346D0BF9173
:102CE000AF91A29F800D911DA39F900DB29F900D5B
:102CF0001124089597FB072E16F4009406D077FD53
:102D000008D041D007FC05D03EF4909581959F4FA7
:102D10000895709561957F4F0895A1E21A2EAA1B20
:102D2000BB1BFD010DC0AA1FBB1FEE1FFF1FA2177B
:102D3000B307E407F50720F0A21BB30BE40BF50B78
:102D4000661F771F881F991F1A9469F76095709501
:102D5000809590959B01AC01BD01CF010895EE0FC8
:102D6000FF1F0590F491E02D199421D0A59F900D9F
:102D7000B49F900DA49F800D911D1124089507907C
:102D8000F691E02D1994AA1BBB1B51E107C0AA1FA5
:102D9000BB1FA617B70710F0A61BB70B881F991FFC
:102DA0005A95A9F780959095BC01CD010895A29FF1
:102DB000B001B39FC001A39F700D811D1124911D0F
:102DC000B29F700D811D1124911D0895D9D008F472
:102DD00081E008950CD00FC107D140F0FED030F053
:102DE00021F45F3F19F0F0C0511139C1F3C014D183
:102DF00098F39923C9F35523B1F3951B550BBB27C2
:102E0000AA2762177307840738F09F5F5F4F220F6E
:102E1000331F441FAA1FA9F333D00E2E3AF0E0E867
:102E200030D091505040E695001CCAF729D0FE2FB3
:102E300027D0660F771F881FBB1F26173707480745
:102E4000AB07B0E809F0BB0B802DBF01FF279358FB
:102E50005F4F2AF09E3F510568F0B6C000C15F3F4A
:102E6000ECF3983EDCF3869577956795B795F795E3
:102E70009F5FC9F7880F911D9695879597F90895DB
:102E8000E1E0660F771F881FBB1F62177307840777
:102E9000BA0720F0621B730B840BBA0BEE1F88F786
:102EA000E095089504D06894B111D9C00895BCD0BC
:102EB00088F09F5790F0B92F9927B751A0F0D1F023
:102EC000660F771F881F991F1AF0BA95C9F712C0AD
:102ED000B13081F0C3D0B1E00895C0C0672F782F22
:102EE0008827B85F39F0B93FCCF386957795679519
:102EF000B395D9F73EF490958095709561957F4F85
:102F00008F4F9F4F0895E89409C097FB3EF490952A
:102F10008095709561957F4F8F4F9F4F9923A9F0B2
:102F2000F92F96E9BB279395F69587957795679541
:102F3000B795F111F8CFFAF4BB0F11F460FF1BC085
:102F40006F5F7F4F8F4F9F4F16C0882311F096E918
:102F500011C0772321F09EE8872F762F05C06623C6
:102F600071F096E8862F70E060E02AF09A95660F7F
:102F7000771F881FDAF7880F9695879597F9089538
:102F8000990F0008550FAA0BE0E8FEEF161617067A
:102F9000E807F907C0F012161306E407F50798F0E2
:102FA000621B730B840B950B39F40A2661F0232BFB
:102FB000242B252B21F408950A2609F4A140A69577
:102FC0008FEF811D811D089597F99F6780E870E05C
:102FD00060E008959FEF80EC089500240A9416168F
:102FE000170618060906089500240A9412161306F7
:102FF000140605060895092E0394000C11F4882385
:1030000052F0BB0F40F4BF2B11F460FF04C06F5FA0
:103010007F4F8F4F9F4F089557FD9058440F551F76
:1030200059F05F3F71F04795880F97FB991F61F04A
:103030009F3F79F087950895121613061406551FC1
:10304000F2CF4695F1DF08C0161617061806991F2D
:10305000F1CF86957105610508940895E894BB2722
:1030600066277727CB0197F908958ADF08F48FEF59
:1030700008950BD0C0CFB1DF28F0B6DF18F095234C
:1030800009F0A2CFA7CF1124EACFC6DFA0F3959F06
:10309000D1F3950F50E0551F629FF001729FBB273F
:1030A000F00DB11D639FAA27F00DB11DAA1F649FEB
:1030B0006627B00DA11D661F829F2227B00DA11D9E
:1030C000621F739FB00DA11D621F839FA00D611D24
:1030D000221F749F3327A00D611D231F849F600D45
:1030E000211D822F762F6A2F11249F5750408AF07E
:1030F000E1F088234AF0EE0FFF1FBB1F661F771F0A
:10310000881F91505040A9F79E3F510570F05CCF49
:10311000A6CF5F3FECF3983EDCF3869577956795F5
:10312000B795F795E7959F5FC1F7FE2B880F911D27
:103130009695879597F90895CF93DF9382309105FF
:1031400010F482E090E0E091840CF091850C20E096
:1031500030E0A0E0B0E0309739F14081518148176C
:103160005907B8F04817590771F482819381109775
:1031700029F013969C938E9312972CC09093850CF4
:103180008093840C27C02115310531F04217530775
:1031900018F0A901DB0101C0EF019A01BD01DF01B7
:1031A0000280F381E02DD7CF21153105F9F0281BDE
:1031B000390B2430310580F48A819B8161157105BA
:1031C00021F0FB019383828304C09093850C80934C
:1031D000840CFE01329644C0FE01E20FF31F81937E
:1031E000919322503109398328833AC02091820C6F
:1031F0003091830C232B41F4209102023091030281
:103200003093830C2093820C2091000230910102B4
:103210002115310541F42DB73EB74091040250917C
:103220000502241B350BE091820CF091830CE21710
:10323000F307A0F42E1B3F0B2817390778F0AC01D9
:103240004E5F5F4F2417350748F04E0F5F1F5093B6
:10325000830C4093820C8193919302C0E0E0F0E0F4
:10326000CF01DF91CF910895CF93DF93009709F4B9
:1032700087C0FC01329713821282C091840CD091D6
:10328000850C209781F420813181280F391F80918E
:10329000820C9091830C8217930779F5F093830C3D
:1032A000E093820C6DC0DE0120E030E0AE17BF0776
:1032B00050F412964D915C9113979D014115510563
:1032C00009F1DA01F3CFB383A28340815181840FE6
:1032D000951F8A179B0771F48D919C911197840F0C
:1032E000951F02969183808312968D919C911397DE
:1032F000938382832115310529F4F093850CE093A3
:10330000840C3EC0D9011396FC93EE9312974D9115
:103310005D91A40FB51FEA17FB0779F480819181B5
:10332000840F951F0296D90111969C938E938281EA
:10333000938113969C938E931297E0E0F0E08A813C
:103340009B81009719F0FE01EC01F9CFCE010296A6
:1033500028813981820F931F2091820C3091830C38
:103360002817390769F4309729F41092850C1092C8
:10337000840C02C013821282D093830CC093820CFF
:10338000DF91CF9108956F927F928F929F92AF922B
:10339000BF92CF92DF92EF92FF920F931F93CF9342
:1033A000DF93EC01CB01209779F4DF91CF911F914E
:1033B0000F91FF90EF90DF90CF90BF90AF909F90D4
:1033C0008F907F906F90B8CEFE01E60FF71F9E01A1
:1033D00022503109E217F30708F4A8C0D9010D9172
:1033E0001C91119706171707B0F00530110508F466
:1033F0009BC0A801445051094617570708F494C0D0
:1034000002501109061B170B019311936D937C93C6
:10341000CF012ADF89C05B01A01AB10A4E01800EDC
:10342000911EA091840CB091850C612C712C60E0F0
:1034300070E0109709F449C0A815B905C9F5ED90D9
:10344000FC901197670142E0C40ED11CCA14DB0442
:1034500078F147018A189B08640142E0C40ED11C30
:103460001296BC9012971396AC91B5E0CB16D1048E
:1034700040F0B282A38391828082D9018D939C9384
:1034800009C00E5F1F4F0E0D1F1DF9011183008330
:10349000EB2DFA2F6115710531F0DB011396FC93CA
:1034A000EE93129741C0F093850CE093840C3CC0DE
:1034B0006D917C9111976616770608F43B01BD016A
:1034C00012960D90BC91A02DB4CF6091820C70919A
:1034D000830C68157905E9F468167906D0F44091F3
:1034E0000002509101024115510541F44DB75EB7FC
:1034F0006091040270910502461B570BE417F50713
:10350000A8F4F093830CE093820CF90191838083FB
:103510000BC012DE7C01009749F0A801BE0117D054
:10352000CE01A2DEC70104C0CE0102C080E090E05F
:10353000DF91CF911F910F91FF90EF90DF90CF908F
:10354000BF90AF909F908F907F906F900895FB01F8
:10355000DC0102C001900D9241505040D8F708950F
:04356000F894FFCF0D
:103564000000860C80007374645F6D7367732F545E
:10357400696D6500636437313636633734633535D6
:103584003263333131666263633266653561376253
:103594006332383900726F7373657269616C5F6D81
:1035A4007367732F546F706963496E666F0030617F
:1035B4006435316638386663343438393266386392
:1035C40031303638343037373634363030350072AF
:1035D4006F7373657269616C5F6D7367732F4C6F82
:1035E40067003131616264373331633235393333E3
:1035F40032363163643631383362643132643632A0
:1036040039350039663065393862646136353938A0
:103614003139383664646635336166613761343014
:1036240065343900616E64626F7431646F74322F73
:10363400576865656C436D640031373336303965DE
:10364400383231393065616565393963366532350B
:1036540031353733653534653900616E64626F74B2
:1036640031646F74322F576865656C46620063621B
:103674003931383137366235363331646165313347
:1036840037316163326263646362343236310038E5
:1036940061653734316465336437633131363161A0
:1036A4003965666138316161323930343234390018
:1036B4004D6573736167652066726F6D206465760E
:1036C4006963652064726F707065643A206D657318
:1036D40073616765206C6172676572207468616EDE
:1036E400206275666665722E006D006B0046726F0F
:1036F4006D20436C69656E74005365727665722043
:103704007361797300506C656173652077616974C6
:1037140020666F722073797374656D207761726DA2
:10372400696E67207570202E2E2E005761726D759C
:10373400702066696E6973680066656564626163BA
:103744006B5F776865656C5F616E67756C617256F7
:10375400656C00636D645F776865656C5F616E6757
:10376400756C617256656C00447269766572537447
:103774006174655F7365727669636500726F7373F4
:10378400657269616C5F6D7367732F5265717565DE
:103794007374506172616D00616E64626F74316440
:1037A4006F74322F44726976657253746174650064
:1037B400000000003E016001A601A9010000000014
:1037C4001404AC0184028702000000009C048A02F5
:1037D400CE02D10200000000C8047005D402D70252
:1037E40000000000DA02000338033B03000000007D
:1037F4003E037003BC03BF0300000000C203C903FF
:10380400D003D30300000000D603DD03E403E70381
:10381400000000008206660A0F0400000000F303A3
:10382400050409040C04000000009207EA03ED03F8
:10383400F00300000000A60F1613FE0E170F090F69
:10384400850F0D0A006E616E00696E66006F766604
:02385400000072
:00000001FF
